:020000020000FC
:100000000FEF0DBF08E00EBF21E0A0E0B1E02D939F
:100010002FE42D9322E12D9326E02D932CE42D93B4
:1000200024E22D9320E22D932FE02D9320E02D93B9
:1000300024E02D9328E02D9320E62D9321E32D93AA
:1000400022E42D9320E32D9328E32D9300E80093E1
:10005000610004E0009361000E9457000FE007B9BF
:100060000FEF0AB900E204B90FED05B9442755278F
:1000700060E01FEF0E943F000E945C00FBCF05B3D1
:1000800000FF0895A89A0EE906BD53955A3069F409
:1000900055274395862F841721F0403131F44427AA
:1000A00004C048B91D9A4427E5CF48B9089505E032
:1000B00005BD0EE906BD089503B1101709F40895B2
:1000C0000E94810003B11017B9F3102F02FD01C087
:1000D00003C003FDF1CF0AC06395603108F060E012
:1000E000A0E0B1E0A60F2C912BB9C4CF603011F085
:1000F0006A9501C06FE0A0E0B1E0A60F2C912BB98A
:10010000B9CF20E023952030E9F720E02395203077
:0C011000E9F720E023952030E9F708957E
:00000001FF
