:020000020000FC
:100000000FEF0DBF08E00EBF00E004B90FEF05B918
:100010000FEF0AB900E00BB90FEF07B900E008B91C
:100020001FEF00E030E040E050E03F70532F642FBE
:100030006F706295562B5BB903B11017B1F30E9434
:100040004A0003B1101789F3102F0E942B000E9461
:1000500037000E9443000E942D0000FD0E943300E3
:1000600033950E94330001FDF2CF3A95F0CF0E9404
:10007000390002FD0E943F0043950E943F0003FDAE
:10008000E8CF4A95E6CF70E004FDCFCF732F740F11
:1000900078B9CBCF20E023952030E9F720E02395F5
:0E00A0002030E9F720E023952030E9F708959D
:00000001FF
